:020000040800F2
:100000000028002005120008951100089B11000827
:10001000A1110008A7110008AD11000800000000A0
:10002000000000000000000000000000B311000804
:10003000BF11000800000000CB110008D711000814
:100040004D1200084D1200084D1200084D12000814
:100050004D1200084D1200084D1200084D12000804
:100060004D1200084D1200084D1200084D120008F4
:100070004D1200084D1200084D1200084D120008E4
:100080004D1200084D1200084D1200084D120008D4
:100090004D1200084D1200084D1200084D120008C4
:1000A0004D1200084D1200084D1200084D120008B4
:1000B000E51100084D120008000000004D12000874
:1000C0004D12000800000000000000004D12000862
:1000D000000000004D1200084D1200080000000052
:1000E0004D1200084D1200084D12000800000000DB
:1000F0000000000000000000000000000000000000
:0C01000000000000000000005FF808F1A3
:10010C0010B5054C237833B9044B13B10448AFF345
:10011C0000800123237010BD1C0000200000000093
:10012C00A428000808B5034B1BB103490348AFF3DF
:10013C00008008BD0000000020000020A42800085A
:10014C0080B584B000AFF860B96011461A460B4612
:10015C00FB801346BB80FB6801330A2B00F2E58061
:10016C0001A252F823F000BFA1010008C101000850
:10017C00E1010008070200082D02000853020008E4
:10018C00790200089F020008C5020008EB02000873
:10019C0011030008BA8B3B8B13439AB2BB881343F1
:1001AC009AB2FB8813439BB201221946B86801F03E
:1001BC004AFBCAE0BA8B3B8B13439AB2BB881343FE
:1001CC009AB2FB8813439BB200221946B86801F01F
:1001DC003AFBBAE0BA8B3B8B13439AB2BB881343FE
:1001EC009BB200221946B86801F02DFBFB88012256
:1001FC001946B86801F027FBA7E0BA8B3B8B134379
:10020C009AB2FB8813439BB200221946B86801F0DE
:10021C001AFBBB8801221946B86801F014FB94E064
:10022C00BA8B3B8B13439BB200221946B86801F082
:10023C000AFBBA88FB8813439BB201221946B868A3
:10024C0001F001FB81E0BA8BBB8813439AB2FB88A7
:10025C0013439BB200221946B86801F0F4FA3B8BA9
:10026C0001221946B86801F0EEFA6EE0BA8BBB8831
:10027C0013439BB200221946B86801F0E4FA3A8B9A
:10028C00FB8813439BB201221946B86801F0DBFAD4
:10029C005BE0BA8BFB8813439BB200221946B8680B
:1002AC0001F0D1FA3A8BBB8813439BB20122194659
:1002BC00B86801F0C8FA48E0BB8B00221946B86850
:1002CC0001F0C1FA3A8BBB8813439AB2FB881343F3
:1002DC009BB201221946B86801F0B5FA35E03A8BA9
:1002EC00BB8813439AB2FB8813439BB20022194676
:1002FC00B86801F0A8FABB8B01221946B86801F066
:10030C00A2FA22E03A8BBB8813439BB20022194617
:10031C00B86801F098FABA8BFB8813439BB20122A0
:10032C001946B86801F08FFA0FE0BA8B3B8B134378
:10033C009AB2BB8813439AB2FB8813439BB2012237
:10034C001946B86801F07FFA00BF00BF1037BD46F0
:10035C0080BD00BF80B586B002AFA24B1B68013BCD
:10036C00A04A13609F4B1B689F4A82FB031292109A
:10037C00DB17D31AFB609B4B1A689B4B83FB021356
:10038C009910D317C91A0B469B000B445B00D31A68
:10039C00BB60964B1B68042B5FD0042B00F3898049
:1003AC00022B02D0032B2CD083E0082301930423CF
:1003BC000093022301228E49F868FFF7C1FE8023C7
:1003CC00019340230093202310228949B868FFF73A
:1003DC00B7FE00224FF48071864801F034FA0122F6
:1003EC004FF4C061834801F02EFA7E4B1B68002B42
:1003FC0061DC814B1B687B4A13607C4B03221A60C7
:10040C0059E0082301930423009302230122784925
:10041C00F868FFF795FE8023019340230093202377
:10042C0010227349B868FFF78BFE00224FF400715D
:10043C00704801F008FA01224FF4A0616D4801F0F8
:10044C0002FA684B1B68002B37DC6C4B1B68654A47
:10045C001360664B04221A602FE0082301930423D7
:10046C000093022301226249F868FFF769FE80239A
:10047C00019340230093202310225D49B868FFF7B5
:10048C005FFE00224FF480615A4801F0DCF9012232
:10049C004FF44071574801F0D6F9524B1B68002BB2
:1004AC000DDC574B1B684F4A1360504B02221A60ED
:1004BC0005E000BF04E000BF02E000BF00E000BFA9
:1004CC00504B1B68013B4F4A13604E4B1B68464A0E
:1004DC0082FB03129210DB17D31A7B60494B1A680C
:1004EC00414B83FB02139910D317C91A0B469B007F
:1004FC000B445B00D31A3B60434B1B68042B00F08E
:10050C008580042B00F3B680022B02D0032B35D050
:10051C00B0E04FF4006301934FF4806300934FF409
:10052C0000734FF4807232497868FFF709FE4FF47C
:10053C00004301934FF4804300934FF400534FF466
:10054C0080522B493868FFF7FBFD00224FF4006105
:10055C00284801F078F901224FF44051254801F068
:10056C0072F9284B1B68002B00F38680224B1B680A
:10057C00244A1360244B03221A607DE04FF400637D
:10058C0001934FF4806300934FF400734FF4807227
:10059C0017497868FFF7D4FD4FF4004301934FF4EB
:1005AC00804300934FF400534FF480521049386845
:1005BC00FFF7C6FD00224FF480510E4801F043F9BD
:1005CC0001224FF420510B4801F03DF90D4B1B68F3
:1005DC00002B53DC094B1B680A4A13600A4B04229C
:1005EC001A604BE070000020676666668000002091
:1005FC0000080140000C01407C0000208400002019
:10060C004400002058000020740000204FF40063C8
:10061C0001934FF4806300934FF400734FF4807296
:10062C001A497868FFF78CFD4FF4004301934FF49F
:10063C00804300934FF400534FF4805213493868B1
:10064C00FFF77EFD00224FF40051114801F0FBF83A
:10065C0001224FF4C0510E4801F0F5F80D4B1B6808
:10066C00002B0DDC0C4B1B680A4A13600B4B02224F
:10067C001A6005E000BF04E000BF02E000BF00E02C
:10068C0000BF00BF1037BD4680BD00BF0008014051
:10069C00000C014058000020440000207400002091
:1006AC0080B500AF01224FF6FF71054801F0CBF881
:1006BC00012243F60171034801F0C5F800BF80BD6B
:1006CC0000080140000C014080B588B002AF944B8B
:1006DC001868802301934023009320231022914912
:1006EC00FFF72EFD8E4B1B68013B032B00F2AF81F5
:1006FC0001A252F823F000BF150700082B070008D1
:10070C002B0800085D090008874B1B68002B00F0C4
:10071C00A081FFF71FFE844B00221A6099E1834BE6
:10072C001B68834A82FB03129210DB17D31A814A8F
:10073C0013607E4B19687E4B83FB01239A10CB17F9
:10074C00D21A13469B0013445B00CA1A7A4B1A60E8
:10075C00784B18684FF4006301934FF48063009357
:10076C004FF400734FF480727449FFF7E9FC724B3D
:10077C0018684FF4004301934FF4804300934FF4F7
:10078C0000534FF480526D49FFF7DAFC6C4B1B6839
:10079C00674A82FB03129210DB17D31A7B60684BFB
:1007AC001A68634B83FB02139910D317C91A0B46B3
:1007BC009B000B445B00D31A3B600823019304237A
:1007CC000093022301225D497868FFF7B9FC80236E
:1007DC000193402300932023102258493868FFF7D7
:1007EC00AFFC584B1B68002B0CD0564B00221A60E8
:1007FC004FF480714B4801F03EF84FF400614948CA
:10080C0001F039F8504B1B68002B00F024814E4B43
:10081C0000221A60454B1B68494A13601BE1434B8D
:10082C001B68434A82FB03129210DB17D31A414A0E
:10083C0013603E4B19683E4B83FB01239A10CB1778
:10084C00D21A13469B0013445B00CA1A3A4B1A6027
:10085C00384B18684FF4006301934FF48063009396
:10086C004FF400734FF480723449FFF769FC324B3C
:10087C0018684FF4004301934FF4804300934FF4F6
:10088C0000534FF480522D49FFF75AFC2F4B1B6835
:10089C00274A82FB03129210DB17D31AFB602B4BF7
:1008AC001A68234B83FB02139910D317C91A0B46F2
:1008BC009B000B445B00D31ABB60082301930423F9
:1008CC000093022301221D49F868FFF739FC8023AD
:1008DC00019340230093202310221849B868FFF796
:1008EC002FFC184B1B68002B0CD0164B00221A60E7
:1008FC004FF400710B4800F0BEFF4FF480510948D3
:10090C0000F0B9FF104B1B68002B00F0A6800E4BBB
:10091C0000221A60054B1B680C4A13609DE000BF57
:10092C006C000020000C01405000002088000020CA
:10093C0067666666540000207800002000080140BD
:10094C00440000204C000020480000207C000020C7
:10095C00454B1B68454A82FB03129210DB17D31AD6
:10096C00434A1360404B1968404B83FB01239A1098
:10097C00CB17D21A13469B0013445B00CA1A3D4B8B
:10098C001A603B4B18684FF4006301934FF480637B
:10099C0000934FF400734FF480723749FFF7D0FB8C
:1009AC00344B18684FF4004301934FF48043009389
:1009BC004FF400534FF480522F49FFF7C1FB2F4BDC
:1009CC001B682A4A82FB03129210DB17D31A7B6135
:1009DC002A4B1A68254B83FB02139910D317C91A9B
:1009EC000B469B000B445B00D31A3B61082301931D
:1009FC0004230093022301221F497869FFF7A0FB0F
:100A0C008023019340230093202310221A49386934
:100A1C00FFF796FB1A4B1B68002B0CD0184B0022CF
:100A2C001A604FF48061174800F025FF4FF4005115
:100A3C00144800F020FF144B1B68002B0FD0124BF6
:100A4C0000221A60084B1B680C4A136007E000BFB9
:100A5C0006E000BF04E000BF02E000BF00E000BF02
:100A6C0000BF1837BD4680BD8800002067666666EB
:100A7C005400002078000020000801408400002071
:100A8C004C000020000C01404800002080B400AF56
:100A9C00084B03221A60084B1B68084A1360084B6A
:100AAC0002221A60074B1B68074A136000BFBD4641
:100ABC0080BC7047800000207C000020700000206B
:100ACC0074000020440000205800002080B500AFC6
:100ADC00104B01221A60104B01221A600F4B0A2294
:100AEC001A600F4B06221A600E4B04221A60FFF795
:100AFC00CDFF0D4B00221A600C4B00221A600C4BE0
:100B0C0000221A600B4B00221A6000F03BF800BF69
:100B1C0080BD00BF6C000020880000204400002035
:100B2C007C000020840000204800002050000020A1
:100B3C004C0000206800002080B400AF064B074A30
:100B4C001A60054B054A5A60034B044A9A6000BF71
:100B5C00BD4680BC704700BF98000020000C0140CF
:100B6C0080B400AF064B02221A80054B04225A8037
:100B7C00034B08229A8000BFBD4680BC704700BF63
:100B8C00AC00002080B582B000AFFFF7D5FFFFF7B7
:100B9C00E7FF00237B6016E00F4A7B68012142F8D7
:100BAC0023100E4A7B68134401221A700C4A7B688E
:100BBC00134401221A700B4A7B68002142F823105F
:100BCC007B6801337B607B68022BE5DD00BF00BFD7
:100BDC000837BD4680BD00BF5C000020A40000208B
:100BEC00A80000208C00002080B582B000AF00234C
:100BFC007B60D9E0714A7B6813441978704A7B6832
:100C0C0013440A461A706F4A7B6852F823206E49C7
:100C1C007B6831F813301946104600F0FDFD034691
:100C2C001946664A7B6813440A461A70634A7B6805
:100C3C0013441A7862497B680B441B789A4240F043
:100C4C00A780624A7B6852F82330022B6FD0022BAC
:100C5C0000F3A080002B0CD0012B40F09B80574A56
:100C6C007B6813441B781946584A7B6842F823105A
:100C7C0097E0524A7B6813441B78002B46D17B6863
:100C8C00002B0FD1524B1B68002B0BD1514B012267
:100C9C001A60514B01221A60504B1B6801334F4AAA
:100CAC00136016E07B68012B09D1494B5B68002B64
:100CBC0005D1494B1B680133474A136009E07B6837
:100CCC00022B06D1424B9B68002B02D1444B0122D4
:100CDC001A603F4A7B6852F82320424B1B689A42A9
:100CEC000ADB3B4A7B68002142F82310374A7B68B9
:100CFC00022142F8231054E0354A7B6852F8233025
:100D0C005A1C33497B6841F8232045E02B4A7B6809
:100D1C0013441B78012B3FD12D4A7B68002142F8EC
:100D2C0023102A4A7B68012142F8231034E07B68A7
:100D3C00012B21D12C4B1A682C4B1B689A4207DBD8
:100D4C00294B00221A60244B1B680133224A136082
:100D5C00254B1B680133244A1360184A7B681344E3
:100D6C001B78012B1AD1204B00221A60174A7B6882
:100D7C00012142F8231011E0104A7B6813441B78C0
:100D8C00012B0DD1114A7B68012142F8231007E099
:100D9C0000BF06E000BF04E000BF02E000BF00E0BF
:100DAC0000BF7B6801337B607B68022B7FF722AF2F
:100DBC0000BF00BF0837BD4680BD00BFA4000020A7
:100DCC00A800002098000020AC0000205C0000204F
:100DDC008C00002068000020880000206C0000209F
:100DEC0048000020000000203800002004000020F3
:100DFC0080B500AF00F026FA00F048F8FFF766FE69
:100E0C0000F0CCF800F07EF8194801F085F9194B88
:100E1C0001221A60184B1B68012B05D100220121FD
:100E2C00164800F010FD04E001220121134800F0E7
:100E3C000AFD134B1B68042B04DD114B01221A60B5
:100E4C00FFF724FE0F4B1B68322B02DD0D4B0122EA
:100E5C001A600D4B1B68002B07D0FFF721FC0A4BC7
:100E6C0000221A60074B01221A60FFF72DFCD1E714
:100E7C00B40000205000002048000020000C01406D
:100E8C006C000020880000206800002080B590B025
:100E9C0000AF07F1180328220021184601F0F4FCDA
:100EAC003B1D00221A605A609A60DA601A610223B4
:100EBC00BB610123BB621023FB6200237B6307F140
:100ECC001803184600F0F0FC0346002B01D000F08C
:100EDC00FFF80F237B600023BB600023FB60002323
:100EEC003B6100237B613B1D0021184600F05CFF39
:100EFC000346002B01D000F0EBF800BF4037BD4695
:100F0C0080BD000080B586B000AF07F10803002259
:100F1C001A605A609A60DA603B4600221A605A6086
:100F2C001D4B4FF080421A601B4B41F63F725A60CA
:100F3C00194B00229A60184B0922DA60164B0022DA
:100F4C001A61154B00229A61134801F095F803467B
:100F5C00002B01D000F0BCF84FF48053BB6007F1BC
:100F6C00080319460C4801F02BFA0346002B01D05C
:100F7C0000F0AEF800233B6000237B603B46194633
:100F8C00054801F0F3FB0346002B01D000F0A0F85C
:100F9C0000BF1837BD4680BDB400002080B586B0B8
:100FAC0000AF07F1080300221A605A609A60DA60F9
:100FBC00284B9B69274A43F004039361254B9B699B
:100FCC0003F004037B607B68224B9B69214A43F04E
:100FDC00080393611F4B9B6903F008033B603B685C
:100FEC0001224FF6FF711C4800F02DFC012243F644
:100FFC00F1711A4800F027FC4FF6FF73BB60012318
:10100C00FB6000233B6102237B6107F10803194657
:10101C00114800F087FA43F6F173BB600123FB60C3
:10102C0000233B6102237B6107F1080319460B483F
:10103C0000F078FA0E23BB600023FB6000233B61B9
:10104C0007F108031946054800F06CFA00BF183781
:10105C00BD4680BD0010024000080140000C01405C
:10106C0080B582B000AF7860FFF7BEFD124B1A68F6
:10107C00124B1B689A4205DB0F4B00221A60104B77
:10108C0001221A600C4B1B6801330B4A13600D4B89
:10109C001A680D4B1B689A4205DB0A4B00221A603A
:1010AC000A4B01221A60074B1B680133054A136077
:1010BC0000BF0837BD4680BD3C0000200800002062
:1010CC0050000020400000200C0000204C000020AC
:1010DC0080B400AF72B600BFFEE7000080B485B0EC
:1010EC0000AF154B9B69144A43F001039361124BFB
:1010FC009B6903F00103BB60BB680F4BDB690E4AB5
:10110C0043F08053D3610C4BDB6903F080537B605D
:10111C007B680A4B5B68FB60FB6823F0E063FB6059
:10112C00FB6843F08063FB60044AFB68536000BFBC
:10113C001437BD4680BC70470010024000000140CF
:10114C0080B584B000AF78607B681B68B3F1804FCA
:10115C0013D10C4BDB690B4A43F00103D361094BF0
:10116C00DB6903F00103FB60FB68002200211C20FB
:10117C0000F0A1F91C2000F0BAF900BF1037BD46F1
:10118C0080BD00BF0010024080B400AFFEE780B409
:10119C0000AFFEE780B400AFFEE780B400AFFEE71F
:1011AC0080B400AFFEE780B400AF00BFBD4680BC8A
:1011BC00704780B400AF00BFBD4680BC704780B4A0
:1011CC0000AF00BFBD4680BC704780B500AF00F0DB
:1011DC007FF800BF80BD000080B500AF024800F072
:1011EC00E7FF00BF80BD00BFB400002080B400AF9B
:1011FC0000BFBD4680BC70470C480D490D4A00230A
:10120C0002E0D458C4500433C4188C42F9D30A4AAF
:10121C000A4C002301E013600432A242FBD3FFF717
:10122C00E5FF01F00DFBFFF7E3FD70470000002028
:10123C001C000020E42800081C00002000010020F5
:10124C00FEE7000080B500AF084B1B68074A43F06F
:10125C0010031360032000F023F90F2000F008F8AE
:10126C00FFF73CFF0023184680BD00BF0020024062
:10127C0080B582B000AF7860124B1A68124B1B78A5
:10128C0019464FF47A73B3FBF1F3B2FBF3F3184640
:10129C0000F03BF90346002B01D001230EE07B68E4
:1012AC000F2B0AD8002279684FF0FF3000F003F9B9
:1012BC00064A7B681360002300E0012318460837B8
:1012CC00BD4680BD10000020180000201400002036
:1012DC0080B400AF054B1B781A46054B1B681344B2
:1012EC00034A136000BFBD4680BC70471800002045
:1012FC00FC00002080B400AF024B1B681846BD46B2
:10130C0080BC7047FC00002080B485B000AF7860D2
:10131C007B6803F00703FB600C4BDB68BB60BA68AF
:10132C004FF6FF031340BB60FB681A02BB68134304
:10133C0043F0BF6343F40033BB60044ABB68D36023
:10134C0000BF1437BD4680BC704700BF00ED00E005
:10135C0080B400AF044BDB681B0A03F0070318468C
:10136C00BD4680BC704700BF00ED00E080B483B088
:10137C0000AF0346FB7197F90730002B0BDBFB79B1
:10138C0003F01F02064997F907305B09012000FAA8
:10139C0002F241F8232000BF0C37BD4680BC7047D9
:1013AC0000E100E080B483B000AF03463960FB710C
:1013BC0097F90730002B0ADB3B68DAB20C4997F936
:1013CC0007301201D2B20B4483F800230AE03B68C9
:1013DC00DAB20849FB7903F00F03043B1201D2B2D5
:1013EC000B441A7600BF0C37BD4680BC704700BF5B
:1013FC0000E100E000ED00E080B489B000AFF860DF
:10140C00B9607A60FB6803F00703FB61FB69C3F109
:10141C000703042B28BF0423BB61FB690433062B91
:10142C0002D9FB69033B00E000237B614FF0FF32E4
:10143C00BB6902FA03F3DA43BB681A407B699A4032
:10144C004FF0FF317B6901FA03F3D9437B680B4002
:10145C00134318462437BD4680BC704780B582B014
:10146C0000AF78607B68013BB3F1807F01D301232F
:10147C000FE00A4A7B68013B53600F214FF0FF30AD
:10148C00FFF790FF054B00229A60044B07221A606D
:10149C00002318460837BD4680BD00BF10E000E0B1
:1014AC0080B582B000AF78607868FFF72DFF00BF81
:1014BC000837BD4680BD80B586B000AF0346B96025
:1014CC007A60FB7300237B61FFF742FF78617A68D7
:1014DC00B9687869FFF790FF024697F90F3011460B
:1014EC001846FFF75FFF00BF1837BD4680BD80B5BB
:1014FC0082B000AF0346FB7197F907301846FFF72F
:10150C0035FF00BF0837BD4680BD80B582B000AF47
:10151C0078607868FFF7A2FF034618460837BD4687
:10152C0080BD000080B48BB000AF786039600023C0
:10153C007B6200233B6248E101227B6A02FA03F3DF
:10154C00FB613B681B68FA691340BB61BA69FB69B4
:10155C009A4240F037813B685B68A34A93425ED065
:10156C00A14A934275D8A14A934258D09F4A9342BC
:10157C006FD89F4A934252D09D4A934269D89D4A54
:10158C0093424CD09B4A934263D89B4A934246D099
:10159C00994A93425DD8122B2AD8122B59D801A202
:1015AC0052F823F02B160008051600081716000831
:1015BC00591600085F1600085F1600085F16000831
:1015CC005F1600085F1600085F1600085F1600081B
:1015DC005F1600085F1600085F1600085F1600080B
:1015EC005F1600085F1600080D160008211600088B
:1015FC00824A934213D02CE03B68DB683B6229E0C3
:10160C003B68DB6804333B6224E03B68DB680833EF
:10161C003B621FE03B68DB680C333B621AE03B68C3
:10162C009B68002B02D104233B6213E03B689B6850
:10163C00012B05D108233B627B68FA691A6109E02A
:10164C0008233B627B68FA695A6103E000233B6222
:10165C0000E000BFBB69FF2B01D87B6801E07B6811
:10166C0004337B61BB69FF2B02D87B6A9B0002E0D1
:10167C007B6A083B9B003B617B691A680F213B69C5
:10168C0001FA03F3DB431A40396A3B6901FA03F3AD
:10169C001A437B691A603B685B6803F08053002B2C
:1016AC0000F09080564B9B69554A43F001039361BF
:1016BC00534B9B6903F00103BB60BB68514A7B6AC7
:1016CC009B08023352F82330FB607B6A03F0030360
:1016DC009B000F2202FA03F3DB43FA681340FB6012
:1016EC007B68494A93420DD07B68484A934207D0A5
:1016FC007B68474A934201D1022304E0032302E0B2
:10170C00012300E000237A6A02F003029200934066
:10171C00FA681343FB603B497B6A9B080233FA6807
:10172C0041F823203B685B6803F48033002B06D020
:10173C00384B1A683749BB6913430B6006E0354BCD
:10174C001A68BB69DB43334913400B603B685B6829
:10175C0003F40033002B06D02E4B5A682D49BB697D
:10176C0013434B6006E02B4B5A68BB69DB4329499A
:10177C0013404B603B685B6803F48013002B06D06E
:10178C00244B9A682349BB6913438B6006E0214BB9
:10179C009A68BB69DB431F4913408B603B685B68ED
:1017AC0003F40013002B06D01A4BDA681949BB69F5
:1017BC001343CB6006E0174BDA68BB69DB43154972
:1017CC001340CB607B6A01337B623B681A687B6A8F
:1017DC0022FA03F3002B7FF4AFAE00BF00BF2C370F
:1017EC00BD4680BC704700BF0000321000003110B5
:1017FC000000221000002110000012100000111037
:10180C00001002400000014000080140000C0140A3
:10181C00001001400004014080B485B000AF786036
:10182C000B467B807B689A687B881340002B02D028
:10183C000123FB7301E00023FB73FB7B1846143779
:10184C00BD4680BC704780B483B000AF78600B4657
:10185C007B8013467B707B78002B03D07A887B6867
:10186C001A6103E07B881A047B681A6100BF0C378D
:10187C00BD4680BC704780B485B000AF78600B4625
:10188C007B807B68DB68FB607A88FB6813401A04FA
:10189C00FB68D9437B880B401A437B681A6100BFF5
:1018AC001437BD4680BC704780B586B000AF7860F9
:1018BC007B68002B01D101236CE27B681B6803F071
:1018CC000103002B00F08780924B5B6803F00C0344
:1018DC00042B0CD08F4B5B6803F00C03082B12D13C
:1018EC008C4B5B6803F48033B3F5803F0BD1894B91
:1018FC001B6803F40033002B6CD07B685B68002BF7
:10190C0068D1012346E27B685B68B3F5803F06D162
:10191C00804B1B687F4A43F4803313602EE07B6856
:10192C005B68002B0CD17B4B1B687A4A23F4803309
:10193C001360784B1B68774A23F4802313601DE0F7
:10194C007B685B68B3F5A02F0CD1724B1B68714A96
:10195C0043F4802313606F4B1B686E4A43F480334F
:10196C0013600BE06B4B1B686A4A23F480331360E3
:10197C00684B1B68674A23F4802313607B685B68A1
:10198C00002B13D0FFF7B6FC386108E0FFF7B2FC70
:10199C0002463B69D31A642B01D90323FAE15D4B50
:1019AC001B6803F40033002BF0D014E0FFF7A2FC0B
:1019BC00386108E0FFF79EFC02463B69D31A642BA2
:1019CC0001D90323E6E1534B1B6803F40033002BCE
:1019DC00F0D100E000BF7B681B6803F00203002B12
:1019EC0063D04C4B5B6803F00C03002B0BD0494BC2
:1019FC005B6803F00C03082B1CD1464B5B6803F4AB
:101A0C008033002B16D1434B1B6803F00203002BD1
:101A1C0005D07B681B69012B01D00123BAE13D4B3A
:101A2C001B6823F0F8027B685B69DB0039491343C0
:101A3C000B603AE07B681B69002B20D0364B0122EF
:101A4C001A60FFF757FC386108E0FFF753FC0246B9
:101A5C003B69D31A022B01D903239BE12D4B1B6845
:101A6C0003F00203002BF0D02A4B1B6823F0F80282
:101A7C007B685B69DB00274913430B6015E0264B41
:101A8C0000221A60FFF736FC386108E0FFF732FCE1
:101A9C0002463B69D31A022B01D903237AE11D4B71
:101AAC001B6803F00203002BF0D17B681B6803F06A
:101ABC000803002B3AD07B689B69002B19D0174B7D
:101ACC0001221A60FFF716FC386108E0FFF712FCE0
:101ADC0002463B69D31A022B01D903235AE10D4B61
:101AEC005B6A03F00203002BF0D0012000F0A6FA91
:101AFC001CE00A4B00221A60FFF7FCFB38610FE078
:101B0C00FFF7F8FB02463B69D31A022B08D90323D3
:101B1C0040E100BF001002400000424280044242FB
:101B2C009E4B5B6A03F00203002BE9D17B681B68B8
:101B3C0003F00403002B00F0A6800023FB75974BE9
:101B4C00DB6903F08053002B0DD1944BDB69934A76
:101B5C0043F08053D361914BDB6903F08053BB603E
:101B6C00BB680123FB758E4B1B6803F48073002B41
:101B7C0018D18B4B1B688A4A43F480731360FFF7B0
:101B8C00B9FB386108E0FFF7B5FB02463B69D31A95
:101B9C00642B01D90323FDE0814B1B6803F4807394
:101BAC00002BF0D07B68DB68012B06D17B4B1B6ACA
:101BBC007A4A43F0010313622DE07B68DB68002B4B
:101BCC000CD1764B1B6A754A23F001031362734BDD
:101BDC001B6A724A23F0040313621CE07B68DB6807
:101BEC00052B0CD16D4B1B6A6C4A43F0040313623A
:101BFC006A4B1B6A694A43F0010313620BE0674BA3
:101C0C001B6A664A23F001031362644B1B6A634A26
:101C1C0023F0040313627B68DB68002B15D0FFF7FD
:101C2C0069FB38610AE0FFF765FB02463B69D31A92
:101C3C0041F28832934201D90323ABE0574B1B6A24
:101C4C0003F00203002BEED014E0FFF753FB3861D6
:101C5C000AE0FFF74FFB02463B69D31A41F2883288
:101C6C00934201D9032395E04C4B1B6A03F002030A
:101C7C00002BEED1FB7D012B05D1484BDB69474A8C
:101C8C0023F08053D3617B68DB69002B00F08180EB
:101C9C00424B5B6803F00C03082B61D07B68DB695B
:101CAC00022B46D13F4B00221A60FFF723FB386111
:101CBC0008E0FFF71FFB02463B69D31A022B01D940
:101CCC00032367E0354B1B6803F00073002BF0D146
:101CDC007B681B6AB3F5803F08D1304B5B6823F4FB
:101CEC0000327B689B682D4913434B602B4B5B6820
:101CFC0023F474127B68196A7B685B6A0B4327496F
:101D0C0013434B60274B01221A60FFF7F3FA38613B
:101D1C0008E0FFF7EFFA02463B69D31A022B01D910
:101D2C00032337E01D4B1B6803F00073002BF0D02E
:101D3C002FE01C4B00221A60FFF7DCFA386108E038
:101D4C00FFF7D8FA02463B69D31A022B01D90323B9
:101D5C0020E0124B1B6803F00073002BF0D118E04D
:101D6C007B68DB69012B01D1012313E00B4B5B6812
:101D7C00FB60FB6803F480327B681B6A9A4206D1D5
:101D8C00FB6803F470127B685B6A9A4201D00123F2
:101D9C0000E0002318461837BD4680BD00100240F5
:101DAC00007000406000424280B584B000AF7860A3
:101DBC0039607B68002B01D10123D0E06A4B1B6892
:101DCC0003F007033A689A4210D9674B1B6823F05B
:101DDC00070265493B6813430B60634B1B6803F0B8
:101DEC0007033A689A4201D00123B8E07B681B686C
:101DFC0003F00203002B20D07B681B6803F0040364
:101E0C00002B05D0594B5B68584A43F4E063536090
:101E1C007B681B6803F00803002B05D0534B5B68F1
:101E2C00524A43F460535360504B5B6823F0F0020A
:101E3C007B689B684D4913434B607B681B6803F0C0
:101E4C000103002B40D07B685B68012B07D1474B0B
:101E5C001B6803F40033002B15D101237FE07B6852
:101E6C005B68022B07D1414B1B6803F00073002BFE
:101E7C0009D1012373E03D4B1B6803F00203002BD7
:101E8C0001D101236BE0394B5B6823F003027B68C3
:101E9C005B68364913434B60FFF72CFAF8600AE095
:101EAC00FFF728FA0246FB68D31A41F288329342B4
:101EBC0001D9032353E02D4B5B6803F00C027B68C4
:101ECC005B689B009A42EBD1274B1B6803F007031E
:101EDC003A689A4210D2244B1B6823F0070222491D
:101EEC003B6813430B60204B1B6803F007033A68F5
:101EFC009A4201D0012332E07B681B6803F0040393
:101F0C00002B08D0194B5B6823F4E0627B68DB681C
:101F1C00164913434B607B681B6803F00803002BC6
:101F2C0009D0124B5B6823F460527B681B69DB00A1
:101F3C000E4913434B6000F021F802460B4B5B68D3
:101F4C001B0903F00F030A49CB5C22FA03F3094A7D
:101F5C001360094B1B681846FFF78AF900231846D3
:101F6C001037BD4680BD00BF00200240001002406B
:101F7C00CC280008100000201400002090B48AB077
:101F8C0000AF2A4B3C1D0FCB84E80F0040F201231D
:101F9C003B800023FB610023BB6100237B62002399
:101FAC007B6100233B62224B5B68FB61FB6903F0A6
:101FBC000C03042B02D0082B03D02DE01D4B3B62ED
:101FCC002DE0FB699B0C03F00F0307F1280213446F
:101FDC0013F8243C7B61FB6903F48033002B13D092
:101FEC00134B5B685B0C03F0010307F128021344ED
:101FFC0013F8283CBB617B690E4A02FB03F2BB69F8
:10200C00B2FBF3F37B6204E07B690B4A02FB03F344
:10201C007B627B6A3B6202E0064B3B6200BF3B6A21
:10202C0018462837BD4690BC704700BFBC28000836
:10203C000010024000127A0000093D0080B485B007
:10204C0000AF78600A4B1B680A4AA2FB03235B0AA9
:10205C007A6802FB03F3FB6000BFFB685A1EFA6050
:10206C00002BF9D100BF00BF1437BD4680BC7047B0
:10207C0010000020D34D621080B582B000AF7860A4
:10208C007B68002B01D1012341E07B6893F83D3044
:10209C00DBB2002B06D17B68002283F83C207868E9
:1020AC00FFF74EF87B68022283F83D207B681A68A4
:1020BC007B6804331946104600F06AFA7B680122EB
:1020CC0083F846207B68012283F83E207B6801223E
:1020DC0083F83F207B68012283F840207B68012233
:1020EC0083F841207B68012283F842207B6801221F
:1020FC0083F843207B68012283F844207B6801220B
:10210C0083F845207B68012283F83D200023184684
:10211C000837BD4680BD000080B485B000AF786044
:10212C007B6893F83D30DBB2012B01D0012335E005
:10213C007B68022283F83D207B681B68DA687B6829
:10214C001B6842F00102DA607B681B68164A9342F6
:10215C0009D07B681B68B3F1804F04D07B681B6887
:10216C00124A934211D17B681B689B6803F00703EA
:10217C00FB60FB68062B10D07B681B681A687B68B9
:10218C001B6842F001021A6007E07B681B681A6842
:10219C007B681B6842F001021A6000231846143752
:1021AC00BD4680BC704700BF002C014000040040BD
:1021BC0080B582B000AF78607B681B681B6903F048
:1021CC000203022B22D17B681B68DB6803F002033D
:1021DC00022B1BD17B681B686FF002021A617B68B3
:1021EC0001221A777B681B689B6903F00303002BA1
:1021FC0003D0786800F0B1F905E0786800F0A4F934
:10220C00786800F0B3F97B6800221A777B681B684A
:10221C001B6903F00403042B22D17B681B68DB6869
:10222C0003F00403042B1BD17B681B686FF00402C2
:10223C001A617B6802221A777B681B689B6903F41E
:10224C004073002B03D0786800F087F905E07868BC
:10225C0000F07AF9786800F089F97B6800221A7727
:10226C007B681B681B6903F00803082B22D17B6871
:10227C001B68DB6803F00803082B1BD17B681B6809
:10228C006FF008021A617B6804221A777B681B685E
:10229C00DB6903F00303002B03D0786800F05DF9D1
:1022AC0005E0786800F050F9786800F05FF97B6819
:1022BC0000221A777B681B681B6903F01003102B34
:1022CC0022D17B681B68DB6803F01003102B1BD139
:1022DC007B681B686FF010021A617B6808221A7702
:1022EC007B681B68DB6903F44073002B03D07868B0
:1022FC0000F033F905E0786800F026F9786800F012
:10230C0035F97B6800221A777B681B681B6903F020
:10231C000103012B0ED17B681B68DB6803F0010302
:10232C00012B07D17B681B686FF001021A6178687A
:10233C00FEF796FE7B681B681B6903F08003802BFD
:10234C000ED17B681B68DB6803F08003802B07D100
:10235C007B681B686FF080021A61786800F067FA7E
:10236C007B681B681B6903F04003402B0ED17B6814
:10237C001B68DB6803F04003402B07D17B681B68AC
:10238C006FF040021A61786800F0F9F87B681B68FE
:10239C001B6903F02003202B0ED17B681B68DB68C4
:1023AC0003F02003202B07D17B681B686FF0200201
:1023BC001A61786800F032FA00BF0837BD4680BD5C
:1023CC0080B584B000AF786039607B6893F83C309E
:1023DC00012B01D10223B3E07B68012283F83C205E
:1023EC007B68022283F83D207B681B689B68FB603E
:1023FC00FB6823F07703FB60FB6823F47F43FB60EF
:10240C007B681B68FA689A603B681B68B3F5005FD1
:10241C003ED0B3F5005F00F28780B3F5805F00F02B
:10242C008580B3F5805F7FD8702B1AD0702B7BD84A
:10243C00602B50D0602B77D8502B3CD0502B73D8BE
:10244C00402B58D0402B6FD8302B64D0302B6BD80E
:10245C00202B60D0202B67D8002B5CD0102B5AD0AF
:10246C0062E07B6818683B6899683B685A683B680F
:10247C00DB6800F05CF97B681B689B68FB60FB68A1
:10248C0043F07703FB607B681B68FA689A604EE048
:10249C007B6818683B6899683B685A683B68DB68DE
:1024AC0000F045F97B681B689A687B681B6842F4EE
:1024BC0080429A603BE07B6818683B6859683B68CF
:1024CC00DB681A4600F0BCF87B681B685021184684
:1024DC0000F013F92BE07B6818683B6859683B687F
:1024EC00DB681A4600F0DAF87B681B686021184636
:1024FC0000F003F91BE07B6818683B6859683B687F
:10250C00DB681A4600F09CF87B681B684021184673
:10251C0000F0F3F80BE07B681A683B681B681946FF
:10252C00104600F0EAF802E000BF00E000BF7B6854
:10253C00012283F83D207B68002283F83C20002395
:10254C0018461037BD4680BD80B483B000AF7860AC
:10255C0000BF0C37BD4680BC704780B483B000AF61
:10256C00786000BF0C37BD4680BC704780B483B028
:10257C0000AF786000BF0C37BD4680BC704780B49C
:10258C0083B000AF786000BF0C37BD4680BC70478D
:10259C0080B485B000AF786039607B681B68FB60E5
:1025AC007B68254A934207D07B68B3F1804F03D0F8
:1025BC007B68224A934208D1FB6823F07003FB60CE
:1025CC003B685B68FA681343FB607B681A4A93426A
:1025DC0007D07B68B3F1804F03D07B68174A9342D6
:1025EC0008D1FB6823F44073FB603B68DB68FA6836
:1025FC001343FB60FB6823F080023B685B69134369
:10260C00FB607B68FA681A603B689A687B68DA62E0
:10261C003B681A687B689A627B68074A934203D1CD
:10262C003B681A697B681A637B6801225A6100BF98
:10263C001437BD4680BC7047002C0140000400409C
:10264C0080B487B000AFF860B9607A60FB681B6A31
:10265C007B61FB681B6A23F00102FB681A62FB6852
:10266C009B693B613B6923F0F0033B617B681B0179
:10267C003A6913433B617B6923F00A037B617A69F6
:10268C00BB6813437B61FB683A699A61FB687A69A2
:10269C001A6200BF1C37BD4680BC704780B487B03F
:1026AC0000AFF860B9607A60FB681B6A23F0100217
:1026BC00FB681A62FB689B697B61FB681B6A3B6168
:1026CC007B6923F470437B617B681B037A6913433A
:1026DC007B613B6923F0A0033B61BB681B013A693A
:1026EC0013433B61FB687A699A61FB683A691A6229
:1026FC0000BF1C37BD4680BC704780B485B000AFAE
:10270C00786039607B689B68FB60FB6823F0700322
:10271C00FB603A68FB68134343F00703FB607B687C
:10272C00FA689A6000BF1437BD4680BC704780B40D
:10273C0087B000AFF860B9607A603B60FB689B685B
:10274C007B617B6923F47F437B613B681A027B6866
:10275C001A43BB6813437A6913437B61FB687A693C
:10276C009A6000BF1C37BD4680BC704780B485B0F2
:10277C0000AF786039607B6893F83C30012B01D155
:10278C00022341E07B68012283F83C207B68022213
:10279C0083F83D207B681B685B68FB607B681B686B
:1027AC009B68BB60FB6823F07003FB603B681B6895
:1027BC00FA681343FB607B681B68FA685A607B6895
:1027CC001B68144A934209D07B681B68B3F1804F95
:1027DC0004D07B681B68104A93420CD1BB6823F071
:1027EC008003BB603B685B68BA681343BB607B6863
:1027FC001B68BA689A607B68012283F83D207B686D
:10280C00002283F83C20002318461437BD4680BCB8
:10281C00704700BF002C01400004004080B483B01E
:10282C0000AF786000BF0C37BD4680BC704780B4E9
:10283C0083B000AF786000BF0C37BD4680BC7047DA
:10284C0070B500260C4D0D4C641BA410A64209D18A
:10285C0000F022F800260A4D0A4C641BA410A64274
:10286C0005D170BD55F8043B98470136EEE755F895
:10287C00043B98470136F2E7DC280008DC28000806
:10288C00DC280008E028000803460244934200D1EB
:10289C00704703F8011BF9E7F8B500BFF8BC08BC9A
:1028AC009E467047F8B500BFF8BC08BC9E46704702
:1028BC0002030405060708090A0B0C0D0E0F101075
:1028CC0000000000000000000102030406070809D4
:0428DC0031010008BE
:0428E0000D010008DE
:1028E40064000000320000006400000032000000B8
:0C28F4000024F4001000000001000000AF
:0400000508001205D8
:00000001FF
